:020000041000EA
:1000000000B5324B212058609868022188439860DF
:10001000D860186158612E4B002199600221596106
:100020000121F02299502B49196001219960352056
:1000300000F044F80222904214D00621196600F024
:1000400034F8196E01211966002018661A6600F04E
:100050002CF8196E196E196E052000F02FF8012189
:100060000842F9D1002199601B49196000215960AB
:100070001A491B48016001219960EB211966A021F2
:10008000196600F012F800219960164914480160C1
:100090000121996001BC002800D000471248134993
:1000A000086003C880F30888084703B5996A0420EC
:1000B0000142FBD001200142F8D103BD02B5186610
:1000C0001866FFF7F2FF186E186E02BD00000240BE
:1000D000000000180000070000035F00212200005C
:1000E000F4000018222000A00001001008ED00E03C
:1000F00000000000000000000000000074B24E7A12
:1001000000200420F7010010C3010010C5010010F9
:10011000C1010010C1010010C1010010C101001097
:10012000C1010010C1010010C1010010C701001081
:10013000C1010010C1010010C9010010CB01001065
:10014000CD010010CD010010CD010010CD01001037
:10015000CD010010CD010010CD010010CD01001027
:10016000CD010010CD010010CD010010CD01001017
:10017000CD010010CD010010CD010010CD01001007
:10018000CD010010CD010010CD010010CD010010F7
:10019000CD010010CD010010CD010010CD010010E7
:1001A000CD010010CD010010CD010010CD010010D7
:1001B000CD010010CD010010CD010010CD010010C7
:1001C00000BE00BE00BE00BE00BE00BE00F04BF888
:1001D000103800BEF2EB887168B100108CB10010CD
:1001E0003402001090A31AE700202149086006C8D5
:1001F00081F3088810471F48006800282FD10DA4FC
:100200000ECC002902D000F012F8F9E71A491B4A77
:10021000002000E001C19142FCD1194988471949E9
:1002200088471949884700BEFDE701C901C29A42C3
:10023000FBD370478CB10010C0000020D80600200E
:10024000A4B700100000042000000420A4B7001090
:1002500000100420001004200000000070470B482C
:1002600008F03AFB0047EFF30580C0B2704700008A
:1002700008ED00E0000000D0D8060020400E00206D
:100280006D6A0010A54200106D6B001057560000FB
:1002900006005250ABB36053D8AF00100600525066
:1002A000861C0302E8AF0010060052505422A29DA3
:1002B000ECAF001005005250DE65F468A4B70010E2
:1002C000F8B5C046044B10B5002B03D003490448D1
:1002D00000E000BF10BDC04600000000F40D00208B
:1002E00080A10010F8B5974B474698468023CE462C
:1002F000D0241B01994680B5404424066830067816
:100300000D000B20002163621700012205F082FC22
:100310004B46012200210B20636205F07BFC4B461B
:10032000012200210B20636205F074FC4B46012280
:1003300000210B20636205F06DFC80235B01994670
:10034000012200210C20636205F064FC4B4601226F
:1003500000210C20636205F05DFC4B460122002168
:100360000C20636205F056FC012200210720082FB3
:1003700000D971E005F04EFC01220021072005F0B4
:1003800049FC01220021072005F044FC0122002144
:10039000072005F03FFC01220021072005F03AFC70
:1003A00001220021072005F035FC01220021072051
:1003B00005F030FC01220021072005F02BFC012272
:1003C0000021072005F026FC022005F0C3FF0720CE
:1003D0000022012105F01EFC0A2005F0BBFF3307B7
:1003E0006CD4730700D571E0B30700D576E0F6074B
:1003F00000D57BE06B0700D580E0AB0700D585E03A
:10040000ED0700D58AE00A2005F0A4FF43469B696A
:10041000002B00D08FE001220021082005F0FAFB1C
:10042000022005F097FFD02380221B06D2005A62DB
:10043000012100220A2005F0EDFB052005F08AFFCE
:10044000012200210A2005F0E5FB022005F082FFD1
:10045000C0BCB946B046F8BD05F0DCFB0122002166
:10046000072005F0D7FB01220021072005F0D2FB71
:1004700001220021072005F0CDFB012200210720E9
:1004800005F0C8FB01220021072005F0C3FB012273
:100490000021072005F0BEFB01220021072005F006
:1004A000B9FB01220021072005F0B4FB022005F072
:1004B00051FF0A2005F04EFF330792D5002201219B
:1004C0000B2005F0A7FB730700D48DE70022012164
:1004D0000B2005F09FFBB30700D488E70022012121
:1004E0000B2005F097FBF60700D483E700220121DB
:1004F0000B2005F08FFB6B0700D47EE70022012163
:100500000C2005F087FBAB0700D479E7002201211E
:100510000C2005F07FFBED0700D474E700220121D9
:100520000C2005F077FB0A2005F014FF43469B6979
:10053000002B00D16FE700220121082005F06AFBA3
:100540006EE7C046D8090020F0B5DE4657464E4655
:100550004546E0B59FB00D900291884201D100F070
:100560000DFD01DD0D9102900D9A1F4D13005C33BE
:100570005B000299EB5610A801930B005C335B0003
:10058000EC565300EB18B9331B78382208934B0014
:10059000EB18B9331B7800210793069409F086F90C
:1005A00023004133DAB20F923023082C00D8E4E262
:1005B000019ADBB29A4613011C0094460C93D23385
:1005C000FF339946089B64449C46942398463934EB
:1005D000FF34D60066442C19B346B0440027564673
:1005E000A944A246069C07E0D8090020E24809F089
:1005F00079FB102F53D00137019BA34200D1B5E303
:100600005346DB5DB342F1D143469B00EB185B7868
:10061000029A5BB29A4200D1D1E2013300D161E289
:10062000D64A5B4694469B00EB1863441B78029ABB
:100630005BB29A4200D1C2E2013300D176E2D04AE5
:100640005B4694469B00EB1863441B78029A5BB2AE
:100650009A4200D1B3E2013300D174E295225B46A5
:10066000920094469B00EB1863441B78029A5BB29D
:100670009A4200D1A3E2013300D171E24A46AB694C
:10068000D25D9A4200D19EE20A2009F0A3F93F20F0
:1006900009F0A0F9B84809F025FB102FABD1019A59
:1006A000B24613004133D9B20E913023082A00D844
:1006B00065E2DBB20093B34B002798460023B946AE
:1006C0002F004546059304930393AF4B0993AF4B1B
:1006D0000A93AF4B0B93002600242A6813019B1842
:1006E000FB181B193933FF331B789A4500D160E1A1
:1006F0000099994200D172E1022E00D178E10434D0
:10070000142CEAD1039B043501330393042BE2D16B
:100710003D004F460021012F09DD139B1A9A1698C0
:100720001D9C934200DD30E2844200DA32E2CB00CD
:100730005A1A920010A88458A0209C222858AA581F
:10074000844200D1AFE2A21A50424241A42028586C
:10075000844200D103225B1A10A98C469B0063449B
:10076000996820012818461800910021D236FF36DA
:1007700031705E6983190098D2338446FF33197053
:100780000C9B0496EB186344B446D233FF331970C4
:10079000069B1B01EB186344D233FF331970019B96
:1007A000D900089BCB1894339B00EB185B785BB2A5
:1007B000013300D179E27148089B8446CB189B0035
:1007C000EB1863441B785BB2013300D191E26C48B3
:1007D000089B8446CB189B00EB1863441B785BB2E4
:1007E000013300D193E2952080008446089BCB180A
:1007F0009B00EB1863441B785BB2013300D194E299
:100800001E239C46A444634605939B00E858E100E0
:100810000B181E009436B600AE19767876B2013603
:1008200000D18CE3554E9B00EB189E19367876B2BA
:10083000013600D198E3524E9E19367876B20136D1
:1008400000D195E39526B600B44663441B785BB2AD
:10085000013300D190E3AB69012B00D11AE20120F2
:10086000404201004B4E1301B446009AEB189A180F
:1008700062441070049A94466344B4466344197009
:10088000019B082B00D97CE10E99434B18009B4635
:1008900009F028FA092009F09DF8404B009918004A
:1008A000994609F01FFA092009F094F83C4B089981
:1008B0001800984609F016FA082C00D9E6E14134F0
:1008C000E3B21E0002933100584609F00BFA0920EA
:1008D00009F080F80099484609F004FA092009F067
:1008E00079F8059B40469C00295909F0FBF9310035
:1008F000584609F0F7F9092009F06CF8049E4846BB
:10090000310009F0EFF9092009F064F8295940464F
:1009100009F0E8F95146584609F0E4F9092009F0D0
:1009200059F831004846049609F0DCF9092009F02D
:1009300051F80799404609F0D5F96B461E78295DB4
:100940003000029AFFF7CEFC30000E9A0899FFF7AC
:10095000C9FC6B461E7C295D3000029AFFF7C2FC81
:10096000300052460799FFF7BDFC00240020002FFD
:1009700000D142E116E0C046DCA1001052020000A6
:1009800053020000700A0020B8A10010C0A100109E
:10099000C4A1001051030000C8A10010D0A1001094
:1009A000D4A100101FB0F0BCBB46B246A946A04679
:1009B000F0BD3021082A01D84132D1B2099809F09E
:1009C00091F92A68009913019B18FB181B193933F8
:1009D000FF331B7801360494994200D08CE6110055
:1009E0000A98013609F07EF90594022E00D086E6B9
:1009F0004B464A4610A98C46DB009B469B1A2A6848
:100A00009B00CA50049963448C46019ACE495A60AF
:100A1000069A1A61039B1B01FA186244511809785F
:100A200049B2013100D162E2C8495118097849B28E
:100A3000013100D169E2C6495118097849B2013142
:100A400000D16EE2D52189008C466244127852B200
:100A5000013200D16EE2059AFB189446BA4A63440B
:100A60009A18127852B2013200D12FE2B74A9A187E
:100A7000127852B2013200D14CE2B54A9A1812787B
:100A800052B2013200D149E2D52292009446634429
:100A90001B780B9A5BB29046013300D146E25B466D
:100AA0004A469B1A10AA944617AA93469B009B4459
:100AB0001E004346A0465C46AB461D00664402CE7F
:100AC000280009F00FF9092008F084FFA642F6D1AA
:100AD0000A2008F07FFF01239C4644465D4600261D
:100AE000E1440CE6079AE3009A1894329200AA189F
:100AF000527852B2013200D092E500225946954810
:100B00008900844669180298891861440870079919
:100B100091488C4663449B00EB189B188D4A944681
:100B20000D9A63441A7008F0ADFFA7E5079AE30039
:100B30009A189200AA186244127852B2013200D078
:100B40007DE50122DAE7079AE3009A189200AA18D5
:100B50006244127852B2013200D07FE50222CDE722
:100B6000079AE3009A189200AA186244127852B2C7
:100B7000013200D082E50322C0E7131C18E50B1CEC
:100B800097E5302330210E937FE60121844200DC7B
:100B9000CDE502E0934200D12BE1042B00D128E106
:100BA000042800D125E1042A07D0042C05D0A4187C
:100BB0001B1801219C4200DAB9E50021B7E567481E
:100BC00008F060FFAB695A4253410C9ADBB2AA1895
:100BD000D219D232FF321370069A2A201201AA18B3
:100BE000D219D232FF321370FCB208F0F3FE5C4B24
:100BF0009B465C4B99465C4B9846019B082B00D961
:100C0000F4E04133DDB22900584609F06BF80920C1
:100C100008F0E0FE202008F0DDFE3900484609F02B
:100C200061F8092008F0D6FE202008F0D3FE089EC7
:100C30004046310009F056F82A0031002000FFF745
:100C400051FB069B082B00D9CBE00F9D2A00079E85
:100C500020003100FFF746FB2900584609F042F812
:100C6000092008F0B7FE202008F0B4FE39004846FD
:100C700009F038F8092008F0ADFE202008F0AAFE9F
:100C80003100404609F02EF800208BE63023302654
:100C9000029318E634216B4600205B181856082191
:100CA0006B465956DEE5022250E5069BD800079BAD
:100CB000C31894339B00EB185B785BB2013300D010
:100CC00079E50026089B9C4661448B002149EB187E
:100CD0008C469B19029963441970079B1D499C46D9
:100CE00060448C468300EB180D999B19634419707E
:100CF00086E5069BD800079BC3189B00EB1863444E
:100D00001B785BB2013300D061E50126DAE7069B70
:100D1000D800079BC3189B00EB1863441B785BB299
:100D2000013300D05FE50226CCE7069B0326D800FE
:100D3000079BC3189B00EB1863441B785BB201331D
:100D400000D05DE5BEE7C04651030000520300003D
:100D50005303000051020000ACA10010A4A1001038
:100D6000C8A10010D0A10010D4A100100C9B012735
:100D7000EB181A00D332FF321278012A44D0D5334F
:100D8000FF331B78012B36D00C9BEB18D733FF3386
:100D90001B78012B5ED00C9BEB18D933FF331B78EB
:100DA000012B61D00C9BEB18DB33FF331B78012B3D
:100DB00064D00C9BEB18DD33FF331B78012B67D01D
:100DC0000C9BEB18DF33FF331B78012B74D00C9B8B
:100DD000EB18E133FF331B78012B63D0002400278D
:100DE00005E7302330251A000F9330E730213025F6
:100DF0000AE701219BE4019B1B01EB18D533FF336C
:100E00001B78012BC0D1032700220C9B5D48EB18F7
:100E1000DB19D233FF331A70089A019B94465A4A61
:100E2000DB00634494469B00EB18029ADB19634491
:100E30001A70079A069B9446534ADB006344944613
:100E40009B00EB180D9ADB1963441A70FCB208F092
:100E500019FECCE6069B1B01EB18D733FF331B783A
:100E6000012B98D10527CFE7069B1B01EB18D9333F
:100E7000FF331B78012B95D10727C5E7069B1B0184
:100E8000EB18DB33FF331B78012B92D10927BBE72B
:100E9000069B1B01EB18DD33FF331B78012B8FD131
:100EA0000B27B1E7069B0F271B01EB18E133FF333C
:100EB0001B78012B92D1A7E7069B1B01EB18DF33B0
:100EC000FF331B78012B82D10D279DE70026049A62
:100ED00049465B465B1A10A98C469B0063440B98FD
:100EE00031005A619E61804608F0FCFED7E5002281
:100EF0009446059849465A46521A10A988466146B2
:100F0000920042449060D160A5E5059A501C0122F0
:100F10009446EFE7049B01265A1CD9E7049B9A1CD0
:100F2000D6E7059A901C02229446E3E7049B032629
:100F3000DA1CCDE7059AD01C03229446DAE7012398
:100F40000393002309181048890084466918CB18B8
:100F50000D9863441870039B9C460B4B61449C4660
:100F6000029B61440B7076E402230393013BE9E7A3
:100F700003230393013BE5E70323E3E7012040421A
:100F800010E5C04680A1001051020000F0B5C64631
:100F90006A4BD0249846802700B5404424063F0180
:100FA0006830067801220B2067620D00002104F0F2
:100FB00031FE012200210B20676204F02BFE01228A
:100FC00000210B20676204F025FE67628027012262
:100FD0007F0100210B2004F01DFE012200210C20C6
:100FE000676204F017FE012200210C20676204F002
:100FF00011FE012200210C20676204F00BFE012289
:101000000021072004F006FE01220021072004F041
:1010100001FE01220021072004F0FCFD0122002135
:10102000072004F0F7FD01220021072004F0F2FD63
:1010300001220021072004F0EDFD012200210720FC
:1010400004F0E8FD01220021072004F0E3FD012265
:101050000021072004F0DEFD022005F07BF90A20C4
:1010600005F078F9330738D473073DD4B30742D479
:10107000F60747D46B074CD4AB0751D4ED0756D4D1
:101080000A2005F067F943469B69002B1FD1012216
:101090000021082004F0BEFD022005F05BF9D023FA
:1010A00080221B06D2005A62012100220A2004F08D
:1010B000B1FD052005F04EF9012200210A2004F0BF
:1010C000A9FD022005F046F980BCB846F0BD00221B
:1010D0000121082004F09EFDDEE7002201210B2003
:1010E00004F098FD7307C1D5002201210B2004F004
:1010F00091FDB307BCD5002201210B2004F08AFD2D
:10110000F607B7D5002201210B2004F083FD6B0701
:10111000B2D5002201210C2004F07CFDAB07ADD537
:10112000002201210C2004F075FDED07A8D5002256
:1011300001210C2004F06EFDA2E7C046D809002072
:10114000F0B5DE464E4645465746E0B5A1B02022F2
:10115000002110A808F0AAFB0021202218A808F0FE
:10116000A5FB0A2008F036FC4B4B4C4E1F0000211B
:101170000025B046994610AC04E004239C46616803
:10118000E14404344B46986FEB001A1894329200F5
:10119000BA18527852B2013201D001312160404E6A
:1011A0001A18B4469200BA186244127852B2013248
:1011B00001D0013121603B4E1A18B4469200BA1892
:1011C0006244127852B2013201D00131216095227D
:1011D000920094461B189B00FB1863441B785BB27B
:1011E000013301D0013121604046013508F07AFD1C
:1011F000052D00D1EEE2082DBFD10A2008F0EAFB50
:10120000109CBA464646002C01D001F0D2FA149D3B
:10121000002D01D101F019FB139C231E01D101F017
:101220002BFB179A0D92002A01D001F035FB072500
:101230000324002B01D101F009FB129B002B01D1EB
:1012400001F021FB00230E930A930B930C93079359
:10125000089309930F9300230593134B802506935E
:10126000042380279B462D017F01059B002B01D184
:1012700000F01AFE042B01D100F078FF0323059A39
:10128000D024134000229B00534401926833013262
:101290009146029324062AE0D8090020E0A100101C
:1012A0005202000053020000F8A1001001220021A8
:1012B000082004F0AFFC022005F04CF88023DB008E
:1012C0006362002201210A2004F0A4FC052005F03D
:1012D00041F8012200210A2004F09CFC022005F0C4
:1012E00039F8019B01330193082B00D128E35346C1
:1012F0004A469A61029B01221E7800210B206562FA
:1013000004F088FC012200210B20656204F082FCBD
:10131000012200210B20656204F07CFC01220021E7
:101320000B20656204F076FC012200210C2067622C
:1013300004F070FC012200210C20676204F06AFCBA
:10134000012200210C20676204F064FC01220021CC
:10135000072004F05FFC01220021072004F05AFC62
:1013600001220021072004F055FC01220021072062
:1013700004F050FC01220021072004F04BFC012264
:101380000021072004F046FC01220021072004F080
:1013900041FC01220021072004F03CFC0122002135
:1013A000072004F037FC022004F0D4FF0A2004F0E8
:1013B000D1FF330700D5BDE25B46334200D0B3E234
:1013C000B30700D5AAE24B46334200D069E20022BF
:1013D00001210C2004F01EFC002201210C2004F04D
:1013E00019FC002201210C2004F014FC0A2004F056
:1013F000B1FF53469B69002B00D0FBE10122002185
:10140000082004F007FC022004F0A4FF8023DB0086
:101410006362002201210A2004F0FCFB052004F095
:1014200099FF012200210A2004F0F4FB022004F0BD
:1014300091FF6B461E79029B01221B780021984682
:101440000B20656204F0E6FB012200210B2065629F
:1014500004F0E0FB012200210B20656204F0DAFBBE
:10146000012200210B20656204F0D4FB012200213F
:101470000C20676204F0CEFB012200210C20676281
:1014800004F0C8FB012200210C20676204F0C2FBBB
:1014900001220021072004F0BDFB012200210720CA
:1014A00004F0B8FB01220021072004F0B3FB012265
:1014B0000021072004F0AEFB01220021072004F0E8
:1014C000A9FB01220021072004F0A4FB0122002136
:1014D000072004F09FFB01220021072004F09AFB63
:1014E00001220021072004F095FB022004F032FFC6
:1014F0000A2004F02FFF43461B0700D508E25B4695
:101500004246134200D0D2E143469B0700D5D7E1C3
:101510004B464246134200D0DCE15B463340039326
:101520005B46334200D0E1E102231A0032400492CC
:10153000334200D0E6E14B46334098464B463342B7
:1015400000D0A8E10A2004F005FF53469B69002B58
:1015500000D049E101220021082004F05BFB0220B9
:1015600004F0F8FE8023DB006362002201210A20E0
:1015700004F050FB052004F0EDFE012200210A20BA
:1015800004F048FB022004F0E5FE0023019A0599CF
:10159000069808F0A7FB534600229A61029B00219F
:1015A0001E780B200132656204F034FB0122002119
:1015B0000B20656204F02EFB012200210B206562E6
:1015C00004F028FB012200210B20656204F022FBBD
:1015D000012200210C20676204F01CFB0122002183
:1015E0000C20676204F016FB012200210C206762C8
:1015F00004F010FB01220021072004F00BFB012264
:101600000021072004F006FB01220021072004F03E
:1016100001FB01220021072004F0FCFA0122002135
:10162000072004F0F7FA01220021072004F0F2FA63
:1016300001220021072004F0EDFA012200210720F9
:1016400004F0E8FA01220021072004F0E3FA022066
:1016500004F080FE0A2004F07DFE330700D5E6E0AA
:101660005B46334200D0CBE0B30700D5D0E04B4619
:10167000334200D0D5E0002201210C2004F0CAFA48
:10168000002201210C2004F0C5FA002201210C20C7
:1016900004F0C0FA0A2004F05DFE53469B69002B5B
:1016A00000D09BE001220021082004F0B3FA0220C0
:1016B00004F050FE8023DB006362002201210A2037
:1016C00004F0A8FA052004F045FE012200210A20BA
:1016D00004F0A0FA022004F03DFE029B01221E78D5
:1016E00000210B20656204F095FA012200210B20F5
:1016F000656204F08FFA012200210B20656204F07C
:1017000089FA012200210B20656204F083FA01228C
:1017100000210C20676204F07DFA012200210C20D8
:10172000676204F077FA012200210C20676204F05E
:1017300071FA01220021072004F06CFA0122002135
:10174000072004F067FA01220021072004F062FA62
:1017500001220021072004F05DFA01220021072068
:1017600004F058FA01220021072004F053FA012264
:101770000021072004F04EFA01220021072004F086
:1017800049FA01220021072004F044FA022004F063
:10179000E1FD0A2004F0DEFD330776D45B463342D8
:1017A0006DD1B30765D44B4633425CD1039B002B0C
:1017B00043D1049B002B48D14346002B4DD10A2036
:1017C00004F0C8FD53469B69002B00D16EE5002252
:1017D00001216DE50A2008F0FDF8CEE40022012188
:1017E000082004F017FA62E700220121082004F023
:1017F00011FAB4E600220121082004F00BFA02E6F7
:10180000002201210B2004F005FAB30700D42EE7D3
:10181000002201210B2004F0FDF94B46334200D198
:1018200029E7002201210B2004F0F4F923E700222C
:1018300001210B2004F0EEF912E7002201210C2017
:1018400004F0E8F9049B002BB6D0002201210C2003
:1018500004F0E0F94346002BB1D0002201210C2016
:1018600004F0D8F9ABE7002201210B2004F0D2F9F3
:101870009CE7002201210B2004F0CCF993E7002221
:1018800001210B2004F0C6F98BE7002201210B2077
:1018900004F0C0F982E7002201210C2004F0BAF91B
:1018A00050E6002201210B2004F0B4F98FE500225C
:1018B00001210B2004F0AEF943469B0700D427E634
:1018C000002201210B2004F0A5F94B4642461342A9
:1018D00000D122E6002201210B2004F09BF95B4697
:1018E000334003935B46334200D11DE600220121C1
:1018F0000C2004F08FF902231A0032400492334284
:1019000000D118E6002201210C2004F083F912E630
:10191000002201210B2004F07DF9F0E500220121D5
:101920000B2004F077F94EE5002201210B2004F092
:1019300071F945E5002201210B2004F06BF93BE52C
:10194000059B01330593082B00D08EE452460023FB
:10195000D02480262406936136017033D55C0021A3
:1019600001220B20666204F055F9012200210B20B0
:10197000666204F04FF9012200210B20666204F038
:1019800049F9666280260122760100210B2004F0CD
:1019900041F9012200210C20666204F03BF901228A
:1019A00000210C20666204F035F9012200210C2090
:1019B000666204F02FF901220021072004F02AF9C1
:1019C00001220021072004F025F90122002107202F
:1019D00004F020F901220021072004F01BF9012264
:1019E0000021072004F016F901220021072004F04D
:1019F00011F901220021072004F00CF90122002135
:101A0000072004F007F901220021072004F002F961
:101A1000022004F09FFC0A2004F09CFC059B2B4252
:101A200001D000F0C2FD6B0701D500F087FDAB07C8
:101A300001D500F08CFDED0701D500F091FD099B6B
:101A4000002B01D000F096FD089B002B01D000F088
:101A50009BFD079B002B01D000F0A0FD0A2004F0A5
:101A600079FC53469B69002B01D000F039FD01221F
:101A70000021082004F0CEF8022004F06BFCD024F2
:101A800080232406DB006362002201210A2004F087
:101A9000C1F8052004F05EFC012200210A2004F0B8
:101AA000B9F88026022004F055FC74235246360112
:101AB000D55C002101220B20666204F0ABF8012204
:101AC00000210B20666204F0A5F8012200210B2002
:101AD000666204F09FF8666280260122760100218A
:101AE0000B2004F097F8012200210C20666204F01C
:101AF00091F8012200210C20666204F08BF801228B
:101B000000210C20666204F085F8012200210720E4
:101B100004F080F801220021072004F07BF8012264
:101B20000021072004F076F801220021072004F0AC
:101B300071F801220021072004F06CF80122002135
:101B4000072004F067F801220021072004F062F862
:101B500001220021072004F05DF801220021072066
:101B600004F058F8022004F0F5FB0A2004F0F2FB20
:101B70002B0701D500F04DFD6B0701D500F042FDAC
:101B8000AB0701D500F037FDED0701D500F02CFDC6
:101B90000C9B002B01D000F020FD0B9B002B01D0F3
:101BA00000F00AFD0A9B002B01D000F00FFD0A2077
:101BB00004F0D0FB53469B69002B01D000F0A5FC3C
:101BC00001220021082004F025F8022004F0C2FBC5
:101BD000D02480232406DB006362002201210A2036
:101BE00004F018F8052004F0B5FB012200210A20BA
:101BF00004F010F88026022004F0ACFB702352465B
:101C00003601D55C002101220B20666204F002F847
:101C1000012200210B20666203F0FCFF012200215B
:101C20000B20666203F0F6FF6662802601227601D1
:101C300000210B2003F0EEFF012200210C20666240
:101C400003F0E8FF012200210C20666203F0E2FFAE
:101C5000012200210C20666203F0DCFF012200213A
:101C6000072003F0D7FF01220021072003F0D2FF55
:101C700001220021072003F0CDFF012200210720CF
:101C800003F0C8FF01220021072003F0C3FF012257
:101C90000021072003F0BEFF01220021072003F0EE
:101CA000B9FF01220021072003F0B4FF0122002127
:101CB000072003F0AFFF022004F04CFB0A2004F0E1
:101CC00049FB2B0701D500F0E2FC6B0701D500F0C2
:101CD000A7FCAB0701D500F0ACFCED0701D500F087
:101CE000B1FC0C9B002B01D000F0B6FC0B9B002B31
:101CF00001D000F0BBFC0A9B002B01D000F0C0FC1F
:101D00000A2004F027FB53469B69002B01D000F00A
:101D1000F5FB01220021082003F07CFF022004F0E3
:101D200019FBD02480232406DB00636200220121FA
:101D30000A2003F06FFF052004F00CFB01220021B4
:101D40000A2003F067FF8026022004F003FB7423BF
:101D500052463601D55C002101220B20666203F059
:101D600059FF012200210B20666203F053FF01227C
:101D700000210B20666203F04DFF6662802601227F
:101D8000760100210B2003F045FF012200210C20E9
:101D9000666203F03FFF012200210C20666203F01F
:101DA00039FF012200210C20666203F033FF01227B
:101DB0000021072003F02EFF01220021072003F05D
:101DC00029FF01220021072003F024FF0122002126
:101DD000072003F01FFF01220021072003F01AFF54
:101DE00001220021072003F015FF01220021072016
:101DF00003F010FF01220021072003F00BFF012256
:101E00000021072003F006FF022004F0A3FA0A20B5
:101E100004F0A0FA2B0701D500F06DFC6B0701D58B
:101E200000F03CFCAB0701D500F041FCED0701D50B
:101E300000F046FC099B002B01D000F04BFC089BF6
:101E4000002B01D000F050FC079B002B00D06FE36B
:101E50000A2004F07FFA53469B69002B00D039E337
:101E600001220021082003F0D5FE022004F072FABE
:101E7000D02380221B06D2005A62012100220A20B0
:101E800003F0C8FE052004F065FA012200210A20B3
:101E900003F0C0FE022004F05DFA21B0F0BCBB46A6
:101EA000B246A946A046F0BD524601339361189B45
:101EB000D0240193DBB2984670232406D65C00211F
:101EC00001220B20656203F0A5FE012200210B20F8
:101ED000656203F09FFE012200210B20656203F082
:101EE00099FE012200210B20656203F093FE01227E
:101EF00000210C20676203F08DFE012200210C20DE
:101F0000676203F087FE012200210C20676203F064
:101F100081FE01220021072003F07CFE0122002126
:101F2000072003F077FE01220021072003F072FE54
:101F300001220021072003F06DFE0122002107206D
:101F400003F068FE01220021072003F063FE012256
:101F50000021072003F05EFE01220021072003F08C
:101F600059FE01220021072003F054FE022004F054
:101F7000F1F90A2004F0EEF9330700D5A4E25B463C
:101F8000334200D09AE2B30700D591E2F60700D5BC
:101F900088E25B464246134200D07DE243469B07FF
:101FA00000D573E24346DB0700D53FE20A2004F088
:101FB000D1F953469B69002B00D0CBE001220021D0
:101FC000082003F027FE022004F0C4F9D024802367
:101FD0002406DB006362002201210A2003F01AFEBE
:101FE000052004F0B7F9012200210A2003F012FEB7
:101FF000022004F0AFF91C9B52469946DBB298468A
:1020000074230021D65C0B200122656203F002FEDE
:10201000012200210B20656203F0FCFD012200215A
:102020000B20656203F0F6FD012200210B206562A2
:1020300003F0F0FD012200210C20676203F0EAFDAD
:10204000012200210C20676203F0E4FD012200213F
:102050000C20676203F0DEFD01220021072003F05F
:10206000D9FD01220021072003F0D4FD0122002127
:10207000072003F0CFFD01220021072003F0CAFD55
:1020800001220021072003F0C5FD012200210720C5
:1020900003F0C0FD01220021072003F0BBFD012257
:1020A0000021072003F0B6FD01220021072003F0E4
:1020B000B1FD022004F04EF90A2004F04BF9330779
:1020C00000D5DDE15B46334200D0D3E1B30700D554
:1020D000CAE1F60700D5C1E15B464246134200D093
:1020E000B6E143469B0700D5ACE14346DB0700D58C
:1020F000A2E10A2004F02EF953469B69002B2FD150
:1021000001220021082003F085FD022004F022F9BD
:10211000D02380221B06D2005A62012100220A200D
:1021200003F078FD052004F015F9012200210A20B2
:1021300003F070FD022004F00DF90199EC4807F05E
:10214000D1FD202007F046FC4946EA4807F0CAFDC9
:10215000FFF794F800220121082003F05BFD32E72D
:1021600000220121082003F055FDCEE7534600224E
:10217000D0249A61702352462406D65C00210122A5
:102180000B20656203F046FD012200210B206562F1
:1021900003F040FD012200210B20656203F03AFDAF
:1021A000012200210B20656203F034FD0122002191
:1021B0000C20676203F02EFD012200210C206762D3
:1021C00003F028FD012200210C20676203F022FDAC
:1021D00001220021072003F01DFD0122002107201C
:1021E00003F018FD01220021072003F013FD012256
:1021F0000021072003F00EFD01220021072003F03B
:1022000009FD01220021072003F004FD0122002125
:10221000072003F0FFFC01220021072003F0FAFC55
:1022200001220021072003F0F5FC022004F092F8BF
:102230000A2004F08FF8330700D5B4E25B4633423E
:1022400000D0AAE2B30700D5A1E2F60700D598E2D4
:10225000099B002B00D08EE2089B002B00D07BE274
:10226000079B002B00D080E20A2004F073F853464D
:102270009B69002B00D055E101220021082003F0CA
:10228000C9FC022004F066F8D02480232406DB0079
:102290006362002201210A2003F0BCFC052004F047
:1022A00059F8012200210A2003F0B4FC022004F0B6
:1022B00051F80F9E0C203100FEF768FE01235246B4
:1022C000310008209361FEF761FE7423524600211D
:1022D000D65C0B200122656203F09CFC01220021E8
:1022E0000B20656203F096FC012200210B20656241
:1022F00003F090FC012200210B20656203F08AFCB0
:10230000012200210C20676203F084FC01220021DD
:102310000C20676203F07EFC012200210C20676222
:1023200003F078FC01220021072003F073FC012256
:102330000021072003F06EFC01220021072003F09A
:1023400069FC01220021072003F064FC0122002126
:10235000072003F05FFC01220021072003F05AFC54
:1023600001220021072003F055FC01220021072053
:1023700003F050FC01220021072003F04BFC022057
:1023800003F0E8FF0A2003F0E5FF330700D5DDE1A5
:102390005B46334200D0D3E1B30700D5CAE1F6076C
:1023A00000D5C1E1099B002B00D0B7E1089B002BB1
:1023B00000D0ADE1079B002B00D0A3E10A2003F081
:1023C000C9FF53469B69002B00D0A5E001220021E4
:1023D000082003F01FFC022003F0BCFFD023802262
:1023E0001B06D2005A62012100220A2003F012FCCF
:1023F000052003F0AFFF012200210A2003F00AFCB0
:10240000022003F0A7FF202007F0E4FA0E993A48D3
:1024100007F068FC202007F0DDFA0D99354807F039
:1024200061FC202007F0D6FAFEF728FF00220121E8
:102430000C2003F0EFFBB9E5002201210C2003F092
:10244000E9FB56E6002201210C2003F0E3FB4CE6F9
:10245000002201210C2003F0DDFB42E600220121D5
:102460000B2003F0D7FB37E6002201210B2003F0FD
:10247000D1FB2EE6002201210B2003F0CBFB25E649
:10248000002201210B2003F0C5FB1BE600220121E5
:102490000C2003F0BFFB85E5002201210C2003F096
:1024A000B9FB7BE5002201210B2003F0B3FB70E5B3
:1024B000002201210B2003F0ADFB67E50022012182
:1024C0000B2003F0A7FB5EE5002201210B2003F0A7
:1024D000A1FB54E500220121082003F09BFBC4E48A
:1024E00000220121082003F095FBFFF7C5FAC04642
:1024F000E8A10010D0A10010F0A1001000220121DD
:10250000082003F087FBFFF709FC002201210820C7
:1025100003F080FBFFF759FB00220121082003F0A4
:1025200079FB58E700220121082003F073FBA8E69D
:10253000002201210C2003F06DFB89E4002201211F
:102540000B2003F067FBAB0701D4FFF774FA0022FE
:1025500001210B2003F05EFBED0701D4FFF76FFABA
:10256000002201210B2003F055FB099B002B01D118
:10257000FFF76AFA002201210C2003F04BFB089BB5
:10258000002B01D1FFF765FA002201210C2003F096
:1025900041FB079B002B01D1FFF760FA00220121CC
:1025A0000C2003F037FBFFF759FA002201210B2022
:1025B00003F030FBFFF737FA002201210C2003F073
:1025C00029FB0A9B002B01D1FFF7F1FA0022012120
:1025D0000C2003F01FFBFFF7EAFA002201210C2078
:1025E00003F018FBFFF7D9FA002201210B2003F0BA
:1025F00011FBFFF7CDFA002201210B2003F00AFBAB
:10260000FFF7C2FA002201210B2003F003FBFFF7C2
:10261000B7FA002201210B2003F0FCFAFFF7ACFA15
:10262000002201210B2003F0F5FAAB0701D4FFF7DC
:1026300054FB002201210B2003F0ECFAED0701D43A
:10264000FFF74FFB002201210B2003F0E3FA0C9B64
:10265000002B01D1FFF74AFB002201210C2003F0DF
:10266000D9FA0B9B002B01D1FFF745FB002201217A
:102670000C2003F0CFFA0A9B002B01D1FFF740FB9F
:10268000002201210C2003F0C5FAFFF739FB0022DC
:1026900001210B2003F0BEFAFFF717FB00220121F6
:1026A0000B2003F0B7FAAB0701D4FFF7BFFB002202
:1026B00001210B2003F0AEFAED0701D4FFF7BAFBBE
:1026C000002201210B2003F0A5FA099B002B01D168
:1026D000FFF7B5FB002201210C2003F09BFA089BB9
:1026E000002B01D1FFF7B0FB002201210C2003F0E9
:1026F00091FAFFF7A9FB002201210B2003F08AFACF
:10270000FFF78CFB002201210C2003F083FA55E631
:10271000002201210C2003F07DFA4BE6002201216A
:102720000C2003F077FA41E6002201210B2003F090
:1027300071FA37E6002201210B2003F06BFA2EE636
:10274000002201210B2003F065FA25E60022012179
:102750000B2003F05FFA1BE6002201210C2003F09E
:1027600059FA079B002B00D17EE5002201210C20A5
:1027700003F050FA78E5002201210C2003F04AFA18
:102780006AE5002201210B2003F044FA60E50022F3
:1027900001210B2003F03EFA57E5002201210B2016
:1027A00003F038FA4EE5002201210B2003F032FA43
:1027B00044E5139B002B05D1179A002A67D0169A7F
:1027C000002A5CD0149A0D92002A01D0FEF729FD50
:1027D000002C5FD0179B002B01D0FEF733FD0723A1
:1027E0000424984618AD1CAB99462F0010C7210051
:1027F000300007F077FAB945F8D144462C61210042
:102800003000043507F06EFAA945F7D10A2007F029
:10281000E1F8189B1C9918000C00CAB20E91042113
:102820000F92022208400D9309901800134008935C
:1028300001231840079020000C400100104019406F
:102840000C940B900A91FEF706FD042418AF1CAB04
:10285000A04699463C0020C42900300007F042FA07
:102860004C45F8D144463C6121003000043707F064
:1028700039FA4F45F7D1C9E703239846B2E7062353
:1028800003249846AEE7023307249846AAE70325B7
:102890000724DBE70425D9E700230A930B930C9365
:1028A0000793089309930F930E930D93FEF7D3FCB0
:1028B000C04BF0B5DE469B46454657464E46342350
:1028C000FE225946E0B534245D4695B0CA5407F05F
:1028D00015FAC3B22B55FE2BF9D0303BD9B2AB461B
:1028E000092912D9FF21B44B0140180007F0FAF969
:1028F00034235A46D35C092B10D9633BDBB2162B29
:1029000016D8AE4A9B00D3589F46AD48295507F0CC
:10291000E9F934235A46D35C092BEED8012393619D
:10292000136215B0F0BCBB46B246A946A046F0BD46
:10293000A44807F0A7F800235A461362F1E7A24B18
:1029400099279B469C4B41269A46A04BB846059337
:102950009F4B370099465646059807F0C3F9390052
:10296000300007F0BFF95C460A2007F033F8FBB2ED
:102970009A462178002551451DD93900484607F06F
:10298000B1F93000217807F0ADF9202007F022F8E6
:1029900043463000E15C07F0A5F90135092007F056
:1029A00019F8082D01D100F03DFF102D0BD0013496
:1029B00021785145E1D8484607F094F939003000B4
:1029C00007F090F9E1E70A2007F004F801235B42E1
:1029D0009C461233E0449C460137E344492FBBD167
:1029E0000A2006F0F7FF9CE702235A46136298E795
:1029F000242200210BA806F059FF01230C93013378
:102A00000D9301330E9304330F93013B1093013B5D
:102A10001193013B12930BAB049300230393029396
:102A2000654B5A469A46694B06920593694B524646
:102A30009A460792029B0A20042B01D100F01FFF47
:102A400006F0C8FF059807F04DF9049B30211C687B
:102A5000082C01D800F01AFF079807F043F90A2064
:102A600006F0B8FF5C4A6401A518069A2021944636
:102A7000494265448C46039B984663449446994674
:102A8000564B63441B190093524B01930123444658
:102A90009C46E044062C01DC00F0AAFE072C01D184
:102AA00000F0E3FE4B46062B01D800F0C1FE272CB8
:102AB00001D100F0F0FE1F2C01DC00F0CDFE08205B
:102AC00006F088FF622006F085FF4946019807F06E
:102AD00009F93F2C01D000F08FFE2A2006F07AFF82
:102AE000092C01DD00F08FFE072C02D0202006F01B
:102AF00071FF202006F06EFF0023EB565A1C0DD10B
:102B00000122AA56013209D10222AA56013205D168
:102B10000322AA56013201D100F0ACFE304A002651
:102B2000002793462C0004355A1C18D07A1E022A1E
:102B300001D800F055FE622001371F2B01DC00F0A8
:102B40002AFE06F047FF0021615650461E3907F065
:102B5000C9F80023E356092B00DD013601360134A4
:102B6000A54201D100F020FE0023E356DCE7D0238C
:102B700080221B0612055A62802252055A620021E9
:102B800001221B2003F046F8012200211C2003F043
:102B900041F800235A460021D364136553659365B9
:102BA0001A20012203F036F8012200211B2003F035
:102BB00031F8B6E6D8090020C0A1001048A50010E1
:102BC000C4A1001028A50010100B00205CA200106A
:102BD00064A20010D0A10010510200007102000098
:102BE0007CA20010D64806F04DFF002201210720EC
:102BF00003F010F800220121072003F00BF8002257
:102C00000121072003F006F800220121072003F02C
:102C100001F800220121072002F0FCFF002201211F
:102C2000072002F0F7FF00220121072002F0F2FF47
:102C300000220121072002F0EDFF002201210720E0
:102C400002F0E8FF00220121092002F0E3FF142036
:102C500003F080FB01220021092002F0DBFF0122AA
:102C60000021072002F0D6FF01220021072002F0F8
:102C7000D1FF01220021072002F0CCFF0122002118
:102C8000072002F0C7FF01220021072002F0C2FF47
:102C900001220021072002F0BDFF012200210720B0
:102CA00002F0B8FF01220021072002F0B3FF012249
:102CB0000021072002F0AEFFA24A530701D000F026
:102CC000E6FE1100012320315B42137053709370B4
:102CD000D370137153719371D371137253729372D2
:102CE000D372137353739373D373137453749374B2
:102CF000D374137553759375D37513765376937692
:102D0000D376137753779377D3770B704B708B70A1
:102D1000CB700B714B718B71CB71110028310B7023
:102D20004B708B70CB700B714B718B71CB71110031
:102D300030310B704B708B70CB700B714B718B7192
:102D4000CB71110038310B704B708B70CB700B71E5
:102D50004B718B71CB71110040310B704B708B70CC
:102D6000CB700B714B718B71CB71110048310B70B3
:102D70004B708B70CB700B714B718B71CB711100E1
:102D800050310B704B708B70CB700B714B718B7122
:102D9000CB71110058310B704B708B70CB700B7175
:102DA0004B718B71CB71110060310B704B708B705C
:102DB000CB700B714B718B71CB71110068310B7043
:102DC0004B708B70CB700B714B718B71CB71110091
:102DD00070310B704B708B70CB700B714B718B71B2
:102DE000CB71110078310B704B708B70CB700B7105
:102DF0004B718B71CB711100883280310B704B702D
:102E00008B70CB70CB718B714B710B711371137015
:102E100053709370D37053719371D3714A4A5A446B
:102E2000137053709370D370137153719371D37186
:102E3000464A5A44137053709370D3701371537190
:102E40009371D371424A5A44137053709370D37084
:102E5000137153719371D3713E4A5A441370537076
:102E60009370D370137153719371D3713A4A5A446A
:102E7000137053709370D370137153719371D37136
:102E8000364A5A44137053709370D3701371537150
:102E90009371D371324A5A44137053709370D37044
:102EA000137153719371D3712E4A5A441370537036
:102EB0009370D370137153719371D3712A4A5A442A
:102EC000137053709370D370137153719371D371E6
:102ED000264A5A44137053709370D3701371537110
:102EE0009371D371224A5A44137053709370D37004
:102EF000137153719371D3711E4A5A4413705370F6
:102F00009370D370137153719371D3711A4A5A44E9
:102F1000137053709370D370137153719371D37195
:102F2000164A5A44137053709370D37013715371CF
:102F30009371D371124A530701D001F0C5F821E013
:102F400008A20010290C0020E1020000E9020000A4
:102F5000F1020000F9020000010300000903000073
:102F600011030000190300002103000029030000E1
:102F70003103000039030000410300004903000051
:102F8000A90B00201100012320311370537093709E
:102F9000D370137153719371D3711372537293720F
:102FA000D372137353739373D373137453749374EF
:102FB000D374137553759375D375137653769376CF
:102FC000D376137753779377D3770B704B708B70DF
:102FD000CB700B714B718B71CB71110028310B7061
:102FE0004B708B70CB700B714B718B71CB7111006F
:102FF00030310B704B708B70CB700B714B718B71D0
:10300000CB71110038310B704B708B70CB700B7122
:103010004B718B71CB71110040310B704B708B7009
:10302000CB700B714B718B71CB71110050324831E9
:10303000CB718B714B710B71CB708B709370537024
:10304000D370137153719371D3714B701370464ADF
:103050000B705A44137053709370D3701371537183
:103060009371D371414A5A44137053709370D37063
:10307000137153719371D3713D4A5A441370537055
:103080009370D370137153719371D371394A5A4449
:10309000137053709370D370137153719371D37114
:1030A000354A5A44137053709370D370137153712F
:1030B0009371D371314A530701D000F0DBFF110047
:1030C000012320315B42137053709370D3701371DE
:1030D00053719371D371137253729372D3721373CA
:1030E00053739373D373137453749374D3741375AA
:1030F00053759375D375137653769376D37613778A
:1031000053779377D3770B704B708B70CB700B71B9
:103110004B718B71CB71110028310B704B708B7020
:10312000CB700B714B718B71CB7111003832303118
:10313000CB718B714B710B71CB708B704B700B70B3
:10314000137053709370D370137153719371D37163
:103150000B4806F097FC142003F0FCF8094806F031
:1031600091FCFFF7DEFBC04629020000310200009F
:10317000390200004102000049020000290D002030
:1031800028A2001050A20010F54806F0ABFD342331
:10319000FE22594634245D46CA5406F0AFFDC3B240
:1031A0002B55FE2BF9D0303BD9B2AB46092901D8BB
:1031B00000F067FCFF210140EA4806F093FDEA4871
:1031C00006F090FD2C23FE2259462C245D46CA545D
:1031D00006F094FDC3B22B55FE2BF9D0303BD9B28B
:1031E000AB46092901D800F0FDFCFF210140DD4874
:1031F00006F078FDDD4B5E469846180006F028FE86
:103200004346DB4F454638001C7A06F06BFD2C2305
:10321000FE222C3DEA542C2506F070FDC3B27355F6
:10322000FE2BF9D0303BD9B2B346092901D800F0C2
:10323000C5FEFF210140CB4806F054FD2300623B50
:103240005A1E9341022259465B4293432A328A5CBA
:10325000083311003039092901D800F0B5FE672A7A
:1032600001D100F0B7FE702A00D0A2E05B446833C1
:103270001E788023D0251B0199462D066B626F3A7C
:1032800000210B2002F0C6FC4B46012200210B203E
:103290006B6202F0BFFC4B46012200210B206B62E7
:1032A00002F0B8FC4B46012200210B206B6202F0B9
:1032B000B1FC80235B019946012200210C206B6246
:1032C00002F0A8FC4B46012200210C206B6202F0A8
:1032D000A1FC4B4601226B6200210C2002F09AFCFB
:1032E00001220021072002F095FC01220021072085
:1032F00002F090FC01220021072002F08BFC012249
:103300000021072002F086FC01220021072002F0A4
:1033100081FC01220021072002F07CFC0122002117
:10332000072002F077FC01220021072002F072FC46
:1033300001220021072002F06DFC022003F00AF8B0
:103340000A2003F007F8330701D500F04AFF73079E
:1033500001D500F03FFFB30701D500F034FFF607B9
:1033600001D500F029FF0A2002F0F4FF5B469B69BB
:10337000002B01D000F03AFE01220021082002F0CB
:1033800049FC022002F0E6FFD02380221B06D20077
:103390005A62012100220A2002F03CFC052002F0C2
:1033A000D9FF0A200122002102F034FC022002F0A1
:1033B000D1FF704806F096FC3423FE22594634258E
:1033C0005E46CA5406F09AFCC3B27355FE2BF9D080
:1033D000303BD9B2B346092901D800F0D3FDFF2113
:1033E0000140604806F07EFC2500634E623D6B1E86
:1033F0009D41300006F02CFD022338006D429D43B4
:1034000006F070FC2C23FE225946A1462C275C4670
:103410000735CA5406F072FCC3B2E355FE2BF9D04F
:10342000303BD9B2A3464C46092901D800F0B9FD7A
:10343000FF2101404B4806F055FC404606F008FDD0
:103440004246127801001000434630382C3B0928D0
:1034500001D800F09DFD672A01D100F0A1FE702A7D
:1034600000D0B1E05B1968331F788023D0251B01A1
:1034700098462D066B626F3A00210B2002F0CAFBC2
:103480004346012200210B206B6202F0C3FB43463E
:10349000012200210B206B6202F0BCFB434601229B
:1034A00000210B206B6202F0B5FB80235B01984684
:1034B000012200210C206B6202F0ACFB434601228A
:1034C00000210C206B6202F0A5FB434601226B62D7
:1034D00000210C2002F09EFB01220021072002F0B7
:1034E00099FB01220021072002F094FB0122002118
:1034F000072002F08FFB01220021072002F08AFB47
:1035000001220021072002F085FB01220021072073
:1035100002F080FB01220021072002F07BFB012248
:103520000021072002F076FB01220021072002F093
:1035300071FB022002F00EFF0A2002F00BFF3B0796
:1035400001D500F06FFD7B0701D500F064FDBB07DE
:1035500001D500F059FDFF0701D500F04EFD0DE04B
:1035600034A40010C0A1001060A40010040A0020C0
:10357000A8A40010F4A400100C0A00200A2002F0F5
:10358000E9FE5B469B69002B01D000F058FD01224B
:103590000021082002F03EFB022002F0DBFED023D7
:1035A00080221B06D2005A62012100220A2002F06A
:1035B00031FB052002F0CEFE0A200122002102F09C
:1035C00029FB022002F0C6FEB54806F08BFB34232F
:1035D000FE22594634255F46CA5406F08FFBC3B21B
:1035E0007B55FE2BF9D0303BD9B2BB46092900D818
:1035F00007E3FF210140AB4806F074FB623C631E09
:103600009C41300006F024FC0323300064429C43BC
:1036100006F01EFC32780100100033003038093407
:10362000343B092800D8E3E2672A01D100F0A7FD66
:10363000702A01D0FFF775F91B198026D024683352
:10364000240636011D786F3A666200210B2002F0D5
:10365000E1FA012200210B20666202F0DBFA01226E
:1036600000210B20666202F0D5FA666280260122F4
:10367000760100210B2002F0CDFA012200210C205E
:10368000666202F0C7FA012200210C20666202F095
:10369000C1FA012200210C20666202F0BBFA01226D
:1036A0000021072002F0B6FA01220021072002F0D3
:1036B000B1FA01220021072002F0ACFA0122002118
:1036C000072002F0A7FA01220021072002F0A2FA47
:1036D00001220021072002F09DFA0122002107208B
:1036E00002F098FA01220021072002F093FA012249
:1036F0000021072002F08EFA022002F02BFE0A20A1
:1037000002F028FE2B0701D500F032FD6B0701D532
:1037100000F083FDAB0701D500F078FDED0701D582
:1037200000F06DFD0A2002F015FE5B469B69002B40
:1037300001D000F05DFD01220021082002F06AFAAC
:10374000022002F007FED02380221B06D2005A621C
:10375000012100220A2002F05DFA052002F0FAFDA4
:10376000012200210A2002F055FA022002F0F2FDA7
:10377000FFF7D7F8FDF7E4FCFFF7D3F800235A462C
:10378000936101331362FFF7CCF801235A4693612A
:103790001362FFF7C6F806F01DF900215046615686
:1037A00006F0A0FAFFF7D5F9032E37DD092006F061
:1037B00011F901239C46009BE144AB4201D0FFF785
:1037C00065F9039B049A08330393029B0432013387
:1037D00002930492082B01D0FFF72CF9FFF7A1F810
:1037E000584606F07FFA00230136E356FFF7A3F9A7
:1037F00041462D4806F076FA202006F0EBF8092C19
:1038000001DCFFF771F94B46092B01D9FFF771F97C
:10381000272C01D1FFF76DF9FFF768F9092006F0B1
:10382000D9F8C3E70A2006F0D5F80134FFF7C0F84D
:10383000082006F0CFF8622006F0CCF821001A48E4
:103840001F3906F04FFA3F2C01D1FFF746F9272C1C
:1038500001D1FFF74EF9CFE72100019806F042FAB7
:103860001F2C01D1FFF739F9C6E7104806F03AFAE4
:10387000FFF73FF90E4806F035FA043596E706F0F3
:10388000A9F8059806F02EFA049B1C682100413126
:10389000C9B2FFF7E1F8074806F024FAFFF729F963
:1038A00010A50010C0A10010D0A100106CA2001043
:1038B00078A2001070A2001034255F46D34B00930D
:1038C000D34B0193D34B0293D34B9946D34B0393E2
:1038D000D34B9846D34B0493D34B0593D34B0693CA
:1038E000D34B0793D34B0893D34B0993009806F01F
:1038F000C9F8019806F0F6F9029806F0F3F948467F
:1039000006F0C0F8039806F0EDF9796DF86C05F053
:10391000EDFE05F059FF02000B00404606F0E2F90B
:10392000484606F0AFF8049806F0DCF9BC6D0021BB
:10393000201C05F021FF002800D049E1201C05F0E3
:1039400043FF02000B00404606F0CCF9484606F063
:1039500099F8059806F0C6F9386D05F035FF0200B4
:103960000B00404606F0BEF9562006F033F80A2058
:1039700006F030F8069806F0B5F9FE237B5506F000
:10398000BDF9C3B27B55FE2BF9D0303BD9B2092922
:1039900000D818E1FF210140099806F0A3F901239E
:1039A00007987B5506F09EF9A44B3C00FB62A24BA6
:1039B0003E009B46A24B2C349A46303606F09EF9C8
:1039C000C1B22170FE29F9D03039C9B2092900D914
:1039D000F3E05046217006F085F90134A642EDD19E
:1039E0002C23FE5C052E00D83EE1731F032B00D86C
:1039F00009E2944806F076F9009806F043F8019839
:103A000006F070F9029806F06DF9484606F03AF8AB
:103A1000039806F067F9796DF86C05F067FE05F01C
:103A2000D3FE02000B00404606F05CF9484606F063
:103A300029F8049806F056F9BC6D0021201C05F009
:103A40009BFE002800D0C8E0201C05F0BDFE02004F
:103A50000B00404606F046F9484606F013F8059874
:103A600006F040F9386D05F0AFFE02000B0040464D
:103A700006F038F9562005F0ADFF0A2005F0AAFF40
:103A800034E729556B4806F02DF9FFF798FBFF2125
:103A90006D4B1170D31801226C4852421A520230F9
:103AA0001A5004301A5004301A5004301A5004309E
:103AB0001A5004301A5004301A5004301A5004308E
:103AC0001A5004301A5004301A5004301A5004307E
:103AD0001A5004301A5004301A5004301A545C48FA
:103AE00019545C495A5202315A5004315A50043127
:103AF0005A5004315A5004315A5004315A5004314A
:103B00005A5004315A5004315A5004315A50043139
:103B10005A5004315A5004315A5004315A50043129
:103B20005A5004315A544C495A544C495A52023151
:103B30005A5004315A5004315A5004315A50043109
:103B40005A5004315A5004315A5004315A500431F9
:103B50005A5004315A5004315A5004315A500431E9
:103B60005A5004315A5004315A5004315A543C4985
:103B70005A543C495A5202315A5004315A50043175
:103B80005A5004315A5004315A5004315A500431B9
:103B90005A5004315A5004315A5004315A500431A9
:103BA0005A5004315A5004315A5004315A50043199
:103BB0005A5004315A54FFF7BDF9FF2101405846CD
:103BC00006F090F809E70898795506F08BF8E6E6D4
:103BD000082005F0FFFEBC6DB0E6082005F0FAFEF7
:103BE000BC6D31E72955164806F07CF8FFF702FB5B
:103BF000002901DAFEF795FE1020FCF7A5FCFEF780
:103C000090FE79550B4806F06DF8F7E480A200109D
:103C100094A20010A8A20010B4A20010B8A2001034
:103C2000CCA20010D0A20010E4A20010F8A2001054
:103C300090A30010C4A10010C0A10010FEFEFEFE63
:103C4000D0A1001004A40010AFFDFFFF520200003D
:103C50009102000092020000D1020000D202000096
:103C600011030000120300000133F85C05F070F945
:103C7000F64AF74B05F0FBF8040030000D0005F0A4
:103C800081FD002105F032FD05F09EFDBB460200DE
:103C90000B002000290005F0C3F82E235A46060029
:103CA000D05C0F0005F054F9EA4AEB4B05F0DFF861
:103CB00004000D003000390005F092F905F084FD94
:103CC00002000B002000290005F0AAF82F235A4615
:103CD0000600D05C0F0005F03BF9E04AE04B05F030
:103CE000C6F804000D003000390005F079F905F040
:103CF0006BFD02000B002000290005F091F805F093
:103D00006FF900245B468022D8645C65D0231205DD
:103D10001B065A62802252055A62002101221B2092
:103D200001F078FF012200211C2001F073FF012225
:103D30000021192001F06EFF009805F0A3FE019804
:103D400005F0D0FF029805F0CDFF484605F09AFE39
:103D5000039805F0C7FF5B46596DD86C05F0C6FCAB
:103D600005F032FD0B000200404605F0BBFF48465F
:103D700005F088FE049805F0B5FF5B469D6D211C9B
:103D8000281C05F0F9FC002800D003E2281C05F0EF
:103D90001BFD02000B00404605F0A4FF484605F05D
:103DA00071FE059805F09EFF5B46186D05F00CFD51
:103DB00002000B00404605F095FF562005F00AFE74
:103DC0000A2005F007FEA74805F08CFF2C23FE22F1
:103DD00059462C245D46CA5405F090FFC3B22B55BA
:103DE000FE2BF9D0303BD9B2AB46092900D8DFE031
:103DF000FF2101409C4805F075FF2C23792259468C
:103E0000CA54FEF78EFD2D23F85C05F0A1F88F4A09
:103E10008F4B05F02CF8040030000D0005F0B2FCCB
:103E2000002105F063FC05F0CFFCBB4602000B004F
:103E30002000290004F0F4FF2E235A460600D05C2F
:103E40000F0005F085F8834A834B05F010F8040055
:103E50000D003000390005F0C3F805F0B5FC020094
:103E60000B002000290004F0DBFF2F235A46060038
:103E7000D05C0F0005F06CF8784A794B04F0F7FF3E
:103E800004000D003000390005F0AAF805F09CFC94
:103E900002000B002000290004F0C2FF05F0A0F88A
:103EA00000245B4680225865DC64D02312051B0683
:103EB0005A62802252055A62002101221B2001F021
:103EC000A9FE012200211C2001F0A4FE01220021F4
:103ED000192001F09FFE009805F0D4FD019805F02F
:103EE00001FF029805F0FEFE484605F0CBFD039861
:103EF00005F0F8FE5B46596DD86C05F0F7FB05F050
:103F000063FC0B000200404605F0ECFE484605F05D
:103F1000B9FD049805F0E6FE5B469D6D211C281C4A
:103F200005F02AFC002800D083E0281C05F04CFC9A
:103F300002000B00404605F0D5FE484605F0A2FD04
:103F4000059805F0CFFE5B46186D05F03DFC0200BC
:103F50000B00404605F0C6FE562005F03BFD0A204A
:103F600005F038FD3F4805F0BDFE2C23FE225946E2
:103F70002C245D46CA5405F0C1FEC3B22B55FE2B5E
:103F8000F9D02FE77155394805F0ACFEFFF72CFA50
:103F9000002901DAFFF718FB2820FCF7D5FAFFF714
:103FA00013FB5B463248D95505F09CFEFFF745FAF6
:103FB0005B462F48195505F095FE1EE771552C48B4
:103FC00005F090FEFFF73AF900213020FCF7BCFA2B
:103FD000FFF7EFF95B4468331E78D02580232D0668
:103FE0001B01994601226B62FFF74AF90022012169
:103FF000082001F00FFEFFF7C4F9002201210B2079
:1040000001F008FEFFF7BAFA002201210B2001F0AF
:1040100001FEFFF7A0FA002201210B2001F0FAFDBA
:10402000FFF795FA002201210B2001F0F3FDFFF7C5
:104030008AFA082005F0CEFC5B469D6D75E70022EC
:104040000121082001F0E6FDFFF7A6FA9A99999957
:104050009999B93F7B14AE47E17A843FFCA9F1D22C
:104060004D62503FE8A30010C0A10010C4A1001091
:10407000D0A10010FF216C4B1170D31801226B49A5
:1040800052425A5202315A5004315A5004315A5055
:1040900004315A5004315A5004315A5004315A50A4
:1040A00004315A5004315A5004315A5004315A5094
:1040B00004315A5004315A5004315A5004315A5084
:1040C00004315A54FFF744F8012113001170022003
:1040D000E922EA24D23BFF3BFF3052009852544A77
:1040E00064001A5104341A5104341A5104341A5118
:1040F00004341A5104341A5104341A5104341A5134
:1041000004341A5104341A5104341A5104341A5123
:1041100004341A5104341A5104341A510434195510
:10412000444C1955444C18531430FF301A50043085
:104130001A5004301A5004301A5004301A50043007
:104140001A5004301A5004301A5004301A500430F7
:104150001A5004301A5004301A5004301A500430E7
:104160001A5004301A50942292009954FEF7A2FF7C
:10417000002201210B2001F04DFDFFF7C7FA1B19AA
:104180008026D0246833240636011D780122666219
:10419000FFF75BFA082005F01DFC5B469D6DF5E519
:1041A0005B1968331F78D02580232D061B019846A4
:1041B00001226B62FFF760F9002201210B2001F060
:1041C00029FDFFF7D0F8002201210B2001F022FD8C
:1041D000FFF7C5F8002201210B2001F01BFDFFF7BE
:1041E000BAF8002201210B2001F014FDFFF7AFF80F
:1041F00000220121082001F00DFDFFF7A1FA0022A5
:1042000001210B2001F006FDFFF78CFA00220121AD
:104210000B2001F0FFFCFFF781FA002201210B20A7
:1042200001F0F8FCFFF776FAAFFCFFFF5203000045
:1042300001010101110200001202000070B5E12528
:10424000144C6D022900200001F03AFD29002000E5
:1042500001F0A6FD0221002001F0C4FC0120022192
:1042600001F0C0FCC022236B120213400A4A136003
:104270006023E26A5A400E331340084A1360102349
:10428000E16A0B40136005F0B7FD054805F0FAFB45
:1042900070BDC04600400340305003402C500340E6
:1042A000A4A50010F0B5DE46454657464E46D0243C
:1042B000E0B58025C5B024066D01FFF7BFFF0122E0
:1042C00000210C20656201F0A5FC012200210C20D8
:1042D000656201F09FFC6562802501222D010021AD
:1042E0000C2001F097FC012200210B20656201F0F7
:1042F00091FC012200210B20656201F08BFC012260
:1043000000210B20656201F085FC65628025012299
:1043100000210B2001F07EFC0122002107206562B4
:1043200001F078FC012200210720656201F072FC97
:10433000012200210720656201F06CFC01220021AE
:104340000720656201F066FC0122002107206562FA
:1043500001F060FC012200210720656201F05AFC97
:10436000012200210720656201F054FC0122002196
:104370000720656201F04EFC0122002107206562E2
:1043800001F048FC80239B00636200220121092088
:1043900001F040FC282001F0DDFF0122002109206E
:1043A00001F038FC4023012263620021062001F065
:1043B00031FC012200210720656201F02BFC8023E3
:1043C0001B026362636280239B0401220021192087
:1043D000636201F01FFC8023DB01002201210E201B
:1043E000636201F017FC80235B000022012108209A
:1043F000636201F00FFC8023DB006362D84B18007E
:104400001C9305F03FFB00220121072001F002FC74
:1044100000220121072001F0FDFB002201210720DD
:1044200001F0F8FB00220121072001F0F3FB00223C
:104430000121072001F0EEFB00220121072001F0FD
:10444000E9FB00220121072001F0E4FB0022012109
:10445000072001F0DFFB00220121072001F0DAFB39
:1044600000220121092001F0D5FB142001F072FF88
:1044700001220021092001F0CDFB012200210720AB
:1044800001F0C8FB01220021072001F0C3FB01223B
:104490000021072001F0BEFB01220021072001F0CE
:1044A000B9FB01220021072001F0B4FB0122002109
:1044B000072001F0AFFB01220021072001F0AAFB39
:1044C00001220021072001F0A5FB01220021072085
:1044D00001F0A0FBA34A530701D001F05BF81100E3
:1044E000012320315B42137053709370D3701371AA
:1044F00053719371D371137253729372D372137396
:1045000053739373D373137453749374D374137575
:1045100053759375D375137653769376D376137755
:1045200053779377D3770B704B708B70CB700B7185
:104530004B718B71CB71110028310B704B708B70EC
:10454000CB700B714B718B71CB71110030310B70D3
:104550004B708B70CB700B714B718B71CB711100E9
:1045600038310B704B708B70CB700B714B718B7142
:10457000CB71110040310B704B708B70CB700B7195
:104580004B718B71CB71110048310B704B708B707C
:10459000CB700B714B718B71CB71110050310B7063
:1045A0004B708B70CB700B714B718B71CB71110099
:1045B00058310B704B708B70CB700B714B718B71D2
:1045C000CB71110060310B704B708B70CB700B7125
:1045D0004B718B71CB71110068310B704B708B700C
:1045E000CB700B714B718B71CB71110070310B70F3
:1045F0004B708B70CB700B714B718B71CB715A49B7
:104600005718110078310B704B708B70CB700B7199
:104610004B718B71CB71110080310B704B708B70B3
:10462000CB700B714B718B71CB71110088310B709A
:104630004B708B70CB700B714B718B71CB71110008
:1046400090310B704B708B70CB700B714B718B7109
:10465000CB71110098310B704B708B70CB700B715C
:104660004B718B71CB711100A0310B704B708B7043
:10467000CB700B714B718B71CB711100A8310B702A
:104680004B708B70CB700B714B718B71CB711100B8
:10469000B0310B704B708B70CB700B714B718B7199
:1046A000CB711100B8310B704B708B70CB700B71EC
:1046B0004B718B71CB711100C0310B704B708B70D3
:1046C000CB700B714B718B71CB711100C8310B70BA
:1046D0004B708B70CB700B714B718B71CB71110068
:1046E000D0310B704B708B70CB700B714B718B7129
:1046F000CB711100D8310B704B708B70CB700B717C
:104700004B718B71CB711100E0310B704B708B7062
:10471000CB700B714B718B71CB711100E8310B7049
:104720004B708B70CB700B714B718B71CB71110017
:10473000F832F031CB718B714B710B71CB708B7088
:104740004B700B70137053709370D370137153715F
:104750009371D371054A530701D000F0F6FF07E0CB
:1047600008A20010290C0020AFFDFFFFA90B0020BC
:10477000110001232031137053709370D3701371A3
:1047800053719371D371137253729372D372137303
:1047900053739373D373137453749374D3741375E3
:1047A00053759375D375137653769376D3761377C3
:1047B00053779377D3770B704B708B70CB700B71F3
:1047C0004B718B71CB71110028310B704B708B705A
:1047D000CB700B714B718B71CB71110030310B7041
:1047E0004B708B70CB700B714B718B71CB71110057
:1047F00038310B704B708B70CB700B714B718B71B0
:10480000CB71110040310B704B708B70CB700B7102
:104810004B718B71CB71110050324831CB718B7160
:104820004B710B71CB708B7093705370D37013718D
:1048300053719371D3714B701370EE4A0B70BA18A9
:10484000137053709370D370137153719371D3714C
:10485000E94ABA18137053709370D370137153717F
:104860009371D371E54ABA18137053709370D37073
:10487000137153719371D371E14ABA181370537065
:104880009370D370137153719371D371DD4ABA1859
:10489000137053709370D370137153719371D371FC
:1048A000D94A530701D000F027FF1100012320311E
:1048B0005B42137053709370D37013715371937183
:1048C000D371137253729372D372137353739373BE
:1048D000D373137453749374D3741375537593759E
:1048E000D375137653769376D3761377537793777E
:1048F000D3770B704B708B70CB700B714B718B71CE
:10490000CB71110028310B704B708B70CB700B7119
:104910004B718B71CB71110038323031CB718B718F
:104920004B710B71CB708B704B700B70137053709D
:104930009370D370137153719371D371B34B18008B
:10494000229305F09FF8D02380221B0612055A629D
:10495000802252055A62002101221B2001F05AF9DF
:10496000012200211C2001F055F900230122FB64E3
:104970003B657B65BB6500211A2001F04BF90122E4
:1049800000211B2001F046F9A14805F07BF8A14B5E
:104990003C6A2393A04B2A93A04B2B93A04B2C93C0
:1049A000A04B2D93A04B2E93A04B1293A04B099399
:1049B000A04B1393A04B1493A04B0793A04B1593BC
:1049C000A04B0393A04B9946A04B1693A04B179373
:1049D000A04B1893A04B1993A04B1A93A04B1B9379
:1049E000A04B0293A04B9A46A04B1D93A04B1E9345
:1049F000A04B1F93A04B2093A04B2193A04B24933B
:104A0000A04B2593A04B2693A04B2793A04B089334
:104A1000A04B2893A04B2993A04B2F93A04B059319
:104A2000A04B3093A04B3193A04B3293A04B3393C8
:104A3000A04B3493A04B3593A04B3693A04B3793A8
:104A4000A04B3893A04B3993A04B0C93A04B0D93E4
:104A5000A04B0E93A04B0F93A04B1093A04B119320
:104A6000FF239B465346CA469946012C36D0022C5A
:104A700000D108E2002C0BD00F9805F003F82100BC
:104A8000109805F02FF9119804F0FCFF00233B6209
:104A9000239804F0F7FF2A9804F0F4FF2B9804F011
:104AA000F1FF2C9804F0EEFF2D9804F0EBFF2E9808
:104AB00004F0E8FF129804F0E5FF099804F0E2FF23
:104AC000139804F0DFFF149804F0DCFF079805F05A
:104AD00009F9FDF7EDFE3C6A012CC8D14B4655465D
:104AE0000093159805F0FEF87E4B3C00BB863933E9
:104AF000FF3398463434B84405F000F9C3B223704C
:104B0000FE2BF9D0303BD9B2092900D994E10398A2
:104B1000217005F0E7F801344445EDD13422BB5C47
:104B2000092B00D9DEE199005B185B00DBB2BB54B6
:104B30003522BA5CD3180193402B00DDC9E1BB6973
:104B4000002B00D0BBE1189805F0CCF8019C1A9816
:104B5000210005F0C7F81B9804F094FF002C00D149
:104B600007E100233C009A4631345146029805F093
:104B7000B9F85D4BFE223E00FB6230232C36FA541E
:104B800005F0BCF8C3B23370FE2BF9D0303BD9B27C
:104B9000092900D924E10098317005F0A3F8013605
:104BA000B442EDD12C23FB5C622B00D11EE12D22FF
:104BB000BA5C622A00D160E12F22BA5C622A00D17D
:104BC00048E13022BA5C622A00D143E100201E2174
:104BD000702B00D00CE12D22BA5C9046672A00D1E0
:104BE0003EE1012294462F22BA5C672A00D119E1E6
:104BF0007CE0C046290200003102000039020000BA
:104C00004102000049020000290D002028A20010E6
:104C100020A6001044A6001060A6001074A6001084
:104C20008CA60010ACA60010C8A60010E0A60010CC
:104C3000FCA6001010A7001040A70010D0A700107D
:104C40005CA70010C4A10010C0A1001088A700102C
:104C5000A8A70010D8A70010E8A70010E0A900102E
:104C6000F4A700106CA80010D0A10010A0A800109C
:104C7000D4A8001000A900102CA9001058A90010F9
:104C800094A9001000AB0010D4A90010ECA90010EA
:104C90005CA200106CA2001070A2001078A200109C
:104CA0007CA20010100B002064A2001050A2001083
:104CB00000AA001018AA001060AA001070AA001024
:104CC00088AA0010A0AA0010B8AA0010CCAA001050
:104CD000DCAA0010E8AA0010B8A50010CCA50010AE
:104CE000D0A50010FEFEFFFFFEFEFEFE3026BE5DDC
:104CF00004960026B146049E672E00D192E0092B4F
:104D000007D84646092E04D89E00F3185B0043449A
:104D1000C018092A09D83023FB5C9846092B04D80F
:104D200093009B185B004344C9187B68834200DCF6
:104D3000DEE0BB688B4200DCE7E06346012B00D17C
:104D400080E04B46012B06D1030000211F22183BB7
:104D50009A424941490138667966FBF7F5FB013013
:104D600000D1BAE001239C46019BE244534500D0A8
:104D7000FBE6009BAA469946209804F083FE219802
:104D800004F080FE249804F07DFE079804F0AAFF4A
:104D9000FE233422BB5404F0B1FF3422C3B2BB540F
:104DA000FE2BF8D0303BD9B2092900D88BE0594608
:104DB0000140504604F096FF3423FB5C633BDBB2BA
:104DC000162B03D8259A9B00D3589F46339804F09E
:104DD00089FF349804F086FF359804F053FECBE742
:104DE00059460140280004F07DFFD8E61E2000212E
:104DF0002D22BA5C702A39D02F22BA5C702A2CD0AE
:104E00003026BE5D702E28D0672B53D02D22BA5C81
:104E10009046672A09D0002294462F22BA5C672A5E
:104E200000D063E76246012A1AD001262F22B1463C
:104E30000026BA5CB44662E759460140280004F0F7
:104E400051FF68E60300083B1F211F2B00D878E7BD
:104E5000203176E71E200021BAE6672B00D0BAE6A3
:104E60001D9804F00FFE01233B623AE6672BF7D052
:104E7000702290466F3A9446B5E61E200021702BB2
:104E800000D1A8E6B8E7369804F0FCFD379804F0A6
:104E9000F9FD389804F0F6FD399804F0F3FD0C980C
:104EA00004F0F0FD0D9804F0EDFD099804F0EAFD22
:104EB0000E9809E60123994600239C4629E7199894
:104EC00004F010FF42E634230398F95404F00AFF7B
:104ED00072E7179804F006FF31E6009BAA46994650
:104EE0003C6AC2E5169804F0FDFE01233B62F8E53A
:104EF000009B1E98994604F0F5FE796848460139F2
:104F000004F0F0FEAA463C6AAFE5009B1F98994664
:104F100004F0E8FEB9684846013904F0E3FEAA4609
:104F20003C6AA2E5242200213BA804F0BFFC012337
:104F30003C9301333D9301333E9304333F93013B54
:104F40004093013B4193013B42933BAB01930023D0
:104F50000693049353460B970A93049B0A20042B51
:104F600000D1E1E004F036FD089804F0BBFE019B9F
:104F700030211C68082C00D8DDE00A9804F0B2FE4D
:104F80000A2004F027FD9F4A6401A5180B9A069B8E
:104F9000944620225242654494469B4A9846634474
:104FA0009A469446230063440093012344469C465A
:104FB000E044062C00DC81E0072C00D1ABE0534636
:104FC000062B00D88DE0272C00D1B8E01F2C00DC88
:104FD00099E0082004F0FEFC622004F0FBFC51463E
:104FE000484604F07FFE3F2C6CD12A2004F0F2FCEE
:104FF000092C6CDC072C02D0202004F0EBFC2020D4
:1050000004F0E8FC0023EB565A1C0CD10122AA56EE
:10501000013208D10222AA56013204D10322AA5633
:10502000013200D17BE0002600272C0004355A1CF9
:1050300014D07A1E022A3AD9622001371F2B13DDC1
:1050400004F0C8FC0021615648461E3904F04AFEAF
:105050000023E356092B00DD013601360134A54259
:105060000AD00023E356E2E704F0B4FC00214846EE
:10507000615604F037FEEBE7032E2EDD092004F025
:10508000A9FC01239C46009BE244AB428DD1049ACB
:10509000069B01320492019A08330432069301926E
:1050A000402B00D059E70A9B0B9F9A4694E605983F
:1050B00004F018FE00230136E356BDE7414648469A
:1050C00004F010FE202004F085FC092C92DD5346EC
:1050D000092B94D8272C92D08EE7092004F07AFC73
:1050E000CCE7082004F076FC622004F073FC210079
:1050F00048461F3904F0F6FD3F2C00D175E7272CF8
:1051000000D17CE7DEE72100484604F0EBFD1F2CD0
:1051100000D16AE7D6E7289804F0E4FD6FE72F98FE
:1051200004F0E0FD0435A9E704F054FC089804F00D
:10513000D9FD019B1C6821004131C9B21DE72998A6
:1051400004F0D0FD5BE7309B0497009399239846C9
:105150004B460193319B574641269A46089804F0E6
:10516000C1FD3100380004F0BDFD0A2004F032FC1E
:10517000F3B299463300009C4646217800259846B4
:1051800049451AD94146504604F0ACFD3800217813
:1051900004F0A8FD202004F01DFCA15D380004F0FF
:1051A000A1FD0135092004F015FC082D25D0102D96
:1051B0000BD0013421784945E4D8504604F092FDE3
:1051C0004146380004F08EFDE4E743460A20B0462D
:1051D0001E0004F0FFFB01235B429C46009B01364E
:1051E0001133E0440093492EB8D1019B0A20BA46FE
:1051F0009946049F04F0EEFBEEE50A2004F0EAFB7A
:105200000134D7E751020000490C00201C9804F03B
:1052100039FC00220121072000F0FCFC00220121C2
:10522000072000F0F7FC00220121072000F0F2FC2B
:1052300000220121072000F0EDFC002201210720BF
:1052400000F0E8FC00220121072000F0E3FC00222E
:105250000121072000F0DEFC00220121072000F0E0
:10526000D9FC00220121072000F0D4FC00220121FA
:10527000092000F0CFFC142001F06CF8012200217D
:10528000092000F0C7FC01220021072000F0C2FC29
:1052900001220021072000F0BDFC0122002107208F
:1052A00000F0B8FC01220021072000F0B3FC01222D
:1052B0000021072000F0AEFC01220021072000F0B1
:1052C000A9FC01220021072000F0A4FC01220021FA
:1052D000072000F09FFC01220021072000F09AFC2B
:1052E0005A46F74B5946FA540123F64A5B42BB52E1
:1052F0000232BB500432BB500432BB500432BB50AC
:105300000432BB500432BB500432BB500432BB5099
:105310000432BB500432BB500432BB500432BB5089
:105320000432BB500432BB500432BB500432BB5475
:10533000E54A0220B954E54A0121BB520232BB5072
:105340000432BB500432BB500432BB500432BB5059
:105350000432BB500432BB500432BB500432BB5049
:105360000432BB500432BB500432BB500432BB5039
:105370000432BB500432BB500432BB54D44AEA243A
:10538000BB54D44AFF30BB520232BB500432BB5034
:105390000432BB500432BB500432BB500432BB5009
:1053A0000432BB500432BB500432BB500432BB50F9
:1053B0000432BB500432BB500432BB500432BB50E9
:1053C0000432BB500432BB54C34A6400BB54C34ACA
:1053D000BB520232BB500432BB500432BB500432C9
:1053E000BB500432BB500432BB500432BB500432B9
:1053F000BB500432BB500432BB500432BB500432A9
:10540000BB500432BB500432BB500432BB50043298
:10541000BB54D222FF32B9540132B852B04A3A5189
:1054200004343A5104343A5104343A5104343A5170
:1054300004343A5104343A5104343A5104343A5160
:1054400004343A5104343A5104343A5104343A5150
:1054500004343A5104343A5104343955A14C395585
:10546000A14C38531430FF303A5004303A500430D5
:105470003A5004303A5004303A5004303A50043034
:105480003A5004303A5004303A5004303A50043024
:105490003A5004303A5004303A5004303A50043014
:1054A0003A5094229200B954904A2298BB54904AA0
:1054B000BB520232BB500432BB500432BB500432E8
:1054C000BB500432BB500432BB500432BB500432D8
:1054D000BB500432BB500432BB500432BB500432C8
:1054E000BB500432BB500432BB500432BB500432B8
:1054F000BB5404F0C7FA329804F0C4FA6CE40A20F2
:1055000004F068FA00233B62FFF7C2FA0023FE2290
:105510003424BB613433FA5404F0F0FBC3B23B557E
:10552000FE2BF9D0303BD9B2092929D9594601407F
:10553000504604F0D7FB34232698F95C04F0D2FBE4
:105540003C6AFFF792FA0123FE223424BB61333315
:10555000FA5404F0D3FBC3B23B55FE2BF9D0303BD9
:10556000D9B2092911D959460140504604F0BAFB75
:1055700034232798F95C04F0B5FB3C6AFFF775FA11
:105580000398395504F0AEFBD5E70398395504F07C
:10559000A9FBEDE7FF22574F494B4A49FA54012333
:1055A0005B427B5202317B5004317B5004317B5093
:1055B00004317B5004317B5004317B5004317B50EB
:1055C00004317B5004317B5004317B5004317B50DB
:1055D00004317B5004317B5004317B5004317B50CB
:1055E00004317B5438497A54384ABB520232BB509A
:1055F0000432BB500432BB500432BB500432BB50A7
:105600000432BB500432BB500432BB500432BB5096
:105610000432BB500432BB500432BB500432BB5086
:105620000432BB500432BB500432BB54284ABB5432
:10563000284ABB520232BB500432BB500432BB502A
:105640000432BB500432BB500432BB500432BB5056
:105650000432BB500432BB500432BB500432BB5046
:105660000432BB500432BB500432BB500432BB5036
:105670000432BB54184ABB54184ABB520232BB50C6
:105680000432BB500432BB500432BB500432BB5016
:105690000432BB500432BB500432BB500432BB5006
:1056A0000432BB500432BB500432BB500432BB50F6
:1056B0000432BB500432BB500432BB54FFF74AF8EB
:1056C000510200005202000091020000920200000C
:1056D000D1020000D20200001103000012030000FA
:1056E000010101011102000012020000510300003B
:1056F00052030000D8090020FF223D4BFA54012339
:105700003C4A5B42BB520232BB500432BB500432B3
:10571000BB500432BB500432BB500432BB50043285
:10572000BB500432BB500432BB500432BB50043275
:10573000BB500432BB500432BB500432BB50043265
:10574000BB500432BB54FFF7F9F8D22301220221E7
:10575000EA20FF33FA54FF319B18F952264B4000E0
:105760003B5004303B5004303B5004303B5004303D
:105770003B5004303B5004303B5004303B5004302D
:105780003B5004303B5004303B5004303B5004301D
:105790003B5004303B5004303B5004303A541748DF
:1057A0003A54174839521431FF317B5004317B5041
:1057B00004317B5004317B5004317B5004317B50E9
:1057C00004317B5004317B5004317B5004317B50D9
:1057D00004317B5004317B5004317B5004317B50C9
:1057E00004317B5094239B00FA54FFF759F8C046CC
:1057F00051030000520300000101010111020000E9
:1058000012020000F8B5CE4647464023BA4C0025A8
:10581000200080B56360A3603F3BB84EA361023BAC
:10582000E3610933002126601022E560256165618E
:10583000256263624C3004F039F85C232566E5523A
:105840006566AF4D23002A00683383CA83C312689C
:105850001A602A0023001032783383CA83C383CAB4
:1058600083C303CA03C32A0023003032983383CA98
:1058700083C312681A602A0023004032A83383CA07
:1058800083C32000126800211A60B830802204F01F
:105890000DF8B9230722E2549A4A0333E2509A4A98
:1058A00004338027E250994A0433E250984A043383
:1058B000E250984A0433E250974A0433E250974A40
:1058C0000433E250964A0433E250964A0433E250DD
:1058D000954A0433E250954A0433E250944A043323
:1058E000E250944A0433E250934A0433E250934A1C
:1058F0000433E250924A0433E250924A0433E250B5
:10590000914B7F00E351822306225B00E2548F49D2
:10591000D219A2520232A1508D490432A1508D49B0
:105920000432A15005210432A15406210232FF3174
:10593000A15289490232A15088490432A1508849B4
:105940000432A150042120000432A1540232A35297
:10595000844A2433E250844A0433E250834A0433B5
:105960004930E25200218922FF3003F09FFF9C233F
:105970007F4A5B00E2507F4A0433E2507E4B522163
:105980009946A0234A465B00E2507C4BFF319C467F
:10599000A22362465B00E2504A22043BFF3BFF32F7
:1059A000A3540132A3544C22FF32A3540132A35416
:1059B0004E230A3AFF3AFF33E2540133E2545023B4
:1059C000FF33E2540133E254093BFF3B635401319E
:1059D000635454215620FF3163540131635411390B
:1059E000FF39FF302154013021545820FF30215419
:1059F0000130215462481731FF3160526148023151
:105A00006050614804316050604804316050B420F7
:105A10005F49400021526C20FF3022545D482A32F9
:105A2000FF32A0505C480432A0505C480432A050C1
:105A30005B480432A05242200232A054594802323C
:105A4000A05059480432A05060460432A050484645
:105A50000432A0508E20443AFF3AFF3022540130E5
:105A60002152C821514849006050514804316050CA
:105A7000504804316050043163544F495733FF3369
:105A8000E1524E490233E1504D490433E1500433B1
:105A9000E254AA23FF33E2540133E6520233E652C2
:105AA000B0230232FF33E254464A0133E250464A01
:105AB0000433E250454A0433E250454A043320009F
:105AC000E25246220233D230E25442493A32FF30A7
:105AD00003F0F2FE404B3A004049E01803F0ECFEC0
